{
  "address": "0xCB031c1044f27bb491E61bCBd96a54f5316e23EF",
  "abi": [
    {
      "inputs": [
        {
          "internalType": "address",
          "name": "_votingPower",
          "type": "address"
        },
        {
          "internalType": "address",
          "name": "_roleManager",
          "type": "address"
        }
      ],
      "stateMutability": "nonpayable",
      "type": "constructor"
    },
    {
      "anonymous": false,
      "inputs": [
        {
          "indexed": true,
          "internalType": "bytes32",
          "name": "role",
          "type": "bytes32"
        },
        {
          "indexed": true,
          "internalType": "bytes32",
          "name": "previousAdminRole",
          "type": "bytes32"
        },
        {
          "indexed": true,
          "internalType": "bytes32",
          "name": "newAdminRole",
          "type": "bytes32"
        }
      ],
      "name": "RoleAdminChanged",
      "type": "event"
    },
    {
      "anonymous": false,
      "inputs": [
        {
          "indexed": true,
          "internalType": "bytes32",
          "name": "role",
          "type": "bytes32"
        },
        {
          "indexed": true,
          "internalType": "address",
          "name": "account",
          "type": "address"
        },
        {
          "indexed": true,
          "internalType": "address",
          "name": "sender",
          "type": "address"
        }
      ],
      "name": "RoleGranted",
      "type": "event"
    },
    {
      "anonymous": false,
      "inputs": [
        {
          "indexed": true,
          "internalType": "bytes32",
          "name": "role",
          "type": "bytes32"
        },
        {
          "indexed": true,
          "internalType": "address",
          "name": "account",
          "type": "address"
        },
        {
          "indexed": true,
          "internalType": "address",
          "name": "sender",
          "type": "address"
        }
      ],
      "name": "RoleRevoked",
      "type": "event"
    },
    {
      "anonymous": false,
      "inputs": [
        {
          "indexed": true,
          "internalType": "address",
          "name": "user",
          "type": "address"
        },
        {
          "indexed": true,
          "internalType": "address",
          "name": "token",
          "type": "address"
        },
        {
          "indexed": true,
          "internalType": "uint256",
          "name": "amount",
          "type": "uint256"
        },
        {
          "indexed": false,
          "internalType": "uint256",
          "name": "votingPower",
          "type": "uint256"
        }
      ],
      "name": "StakeLocked",
      "type": "event"
    },
    {
      "anonymous": false,
      "inputs": [
        {
          "indexed": true,
          "internalType": "address",
          "name": "user",
          "type": "address"
        },
        {
          "indexed": true,
          "internalType": "address",
          "name": "token",
          "type": "address"
        },
        {
          "indexed": true,
          "internalType": "uint256",
          "name": "amount",
          "type": "uint256"
        },
        {
          "indexed": false,
          "internalType": "uint256",
          "name": "votingPower",
          "type": "uint256"
        }
      ],
      "name": "StakeUnlocked",
      "type": "event"
    },
    {
      "inputs": [],
      "name": "DEFAULT_ADMIN_ROLE",
      "outputs": [
        {
          "internalType": "bytes32",
          "name": "",
          "type": "bytes32"
        }
      ],
      "stateMutability": "view",
      "type": "function"
    },
    {
      "inputs": [],
      "name": "LOCKER_ROLE",
      "outputs": [
        {
          "internalType": "bytes32",
          "name": "",
          "type": "bytes32"
        }
      ],
      "stateMutability": "view",
      "type": "function"
    },
    {
      "inputs": [
        {
          "internalType": "address",
          "name": "token",
          "type": "address"
        },
        {
          "internalType": "uint256",
          "name": "amount",
          "type": "uint256"
        }
      ],
      "name": "calculateVotingPower",
      "outputs": [
        {
          "internalType": "uint256",
          "name": "",
          "type": "uint256"
        }
      ],
      "stateMutability": "view",
      "type": "function"
    },
    {
      "inputs": [
        {
          "internalType": "address",
          "name": "staker",
          "type": "address"
        },
        {
          "internalType": "address",
          "name": "stakedToken",
          "type": "address"
        }
      ],
      "name": "getAmountStaked",
      "outputs": [
        {
          "internalType": "uint256",
          "name": "",
          "type": "uint256"
        }
      ],
      "stateMutability": "view",
      "type": "function"
    },
    {
      "inputs": [
        {
          "internalType": "bytes32",
          "name": "role",
          "type": "bytes32"
        }
      ],
      "name": "getRoleAdmin",
      "outputs": [
        {
          "internalType": "bytes32",
          "name": "",
          "type": "bytes32"
        }
      ],
      "stateMutability": "view",
      "type": "function"
    },
    {
      "inputs": [
        {
          "internalType": "bytes32",
          "name": "role",
          "type": "bytes32"
        },
        {
          "internalType": "uint256",
          "name": "index",
          "type": "uint256"
        }
      ],
      "name": "getRoleMember",
      "outputs": [
        {
          "internalType": "address",
          "name": "",
          "type": "address"
        }
      ],
      "stateMutability": "view",
      "type": "function"
    },
    {
      "inputs": [
        {
          "internalType": "bytes32",
          "name": "role",
          "type": "bytes32"
        }
      ],
      "name": "getRoleMemberCount",
      "outputs": [
        {
          "internalType": "uint256",
          "name": "",
          "type": "uint256"
        }
      ],
      "stateMutability": "view",
      "type": "function"
    },
    {
      "inputs": [
        {
          "internalType": "address",
          "name": "staker",
          "type": "address"
        },
        {
          "internalType": "address",
          "name": "stakedToken",
          "type": "address"
        }
      ],
      "name": "getStake",
      "outputs": [
        {
          "components": [
            {
              "internalType": "uint256",
              "name": "amount",
              "type": "uint256"
            },
            {
              "internalType": "uint256",
              "name": "votingPower",
              "type": "uint256"
            }
          ],
          "internalType": "struct LockManager.LockedStake",
          "name": "",
          "type": "tuple"
        }
      ],
      "stateMutability": "view",
      "type": "function"
    },
    {
      "inputs": [
        {
          "internalType": "bytes32",
          "name": "role",
          "type": "bytes32"
        },
        {
          "internalType": "address",
          "name": "account",
          "type": "address"
        }
      ],
      "name": "grantRole",
      "outputs": [],
      "stateMutability": "nonpayable",
      "type": "function"
    },
    {
      "inputs": [
        {
          "internalType": "address",
          "name": "receiver",
          "type": "address"
        },
        {
          "internalType": "address",
          "name": "token",
          "type": "address"
        },
        {
          "internalType": "uint256",
          "name": "tokenAmount",
          "type": "uint256"
        }
      ],
      "name": "grantVotingPower",
      "outputs": [
        {
          "internalType": "uint256",
          "name": "votingPowerGranted",
          "type": "uint256"
        }
      ],
      "stateMutability": "nonpayable",
      "type": "function"
    },
    {
      "inputs": [
        {
          "internalType": "bytes32",
          "name": "role",
          "type": "bytes32"
        },
        {
          "internalType": "address",
          "name": "account",
          "type": "address"
        }
      ],
      "name": "hasRole",
      "outputs": [
        {
          "internalType": "bool",
          "name": "",
          "type": "bool"
        }
      ],
      "stateMutability": "view",
      "type": "function"
    },
    {
      "inputs": [
        {
          "internalType": "address",
          "name": "receiver",
          "type": "address"
        },
        {
          "internalType": "address",
          "name": "token",
          "type": "address"
        },
        {
          "internalType": "uint256",
          "name": "tokenAmount",
          "type": "uint256"
        }
      ],
      "name": "removeVotingPower",
      "outputs": [
        {
          "internalType": "uint256",
          "name": "votingPowerRemoved",
          "type": "uint256"
        }
      ],
      "stateMutability": "nonpayable",
      "type": "function"
    },
    {
      "inputs": [
        {
          "internalType": "bytes32",
          "name": "role",
          "type": "bytes32"
        },
        {
          "internalType": "address",
          "name": "account",
          "type": "address"
        }
      ],
      "name": "renounceRole",
      "outputs": [],
      "stateMutability": "nonpayable",
      "type": "function"
    },
    {
      "inputs": [
        {
          "internalType": "bytes32",
          "name": "role",
          "type": "bytes32"
        },
        {
          "internalType": "address",
          "name": "account",
          "type": "address"
        }
      ],
      "name": "revokeRole",
      "outputs": [],
      "stateMutability": "nonpayable",
      "type": "function"
    },
    {
      "inputs": [],
      "name": "votingPower",
      "outputs": [
        {
          "internalType": "contract IVotingPower",
          "name": "",
          "type": "address"
        }
      ],
      "stateMutability": "view",
      "type": "function"
    }
  ],
  "transactionHash": "0x4f65ea1ccfa11b6c324055c9120add932d76ea3d22e9bc64b227f1b4852c5cd5",
  "args": [
    "0x2160deC25ECcb5f9a8aF38061b3aD1b828018aBb",
    "0xDcEDF06Fd33E1D7b6eb4b309f779a0e9D3172e44"
  ],
  "solcInputHash": "cbca27c4fdf8e9078ea5771556254fe0",
  "bytecode": "0x60806040523480156200001157600080fd5b506040516200172638038062001726833981016040819052620000349162000195565b600280546001600160a01b0319166001600160a01b0384161790556200005c60008262000064565b5050620001cc565b62000070828262000074565b5050565b6000828152602081815260409091206200009991839062000ae6620000ed821b17901c565b156200007057620000a96200010d565b6001600160a01b0316816001600160a01b0316837f2f8788117e7eff1d82e926ec794901d17c78024a50270940304540a733656f0d60405160405180910390a45050565b600062000104836001600160a01b03841662000111565b90505b92915050565b3390565b60006200011f838362000160565b620001575750815460018181018455600084815260208082209093018490558454848252828601909352604090209190915562000107565b50600062000107565b60009081526001919091016020526040902054151590565b80516001600160a01b03811681146200019057600080fd5b919050565b60008060408385031215620001a8578182fd5b620001b38362000178565b9150620001c36020840162000178565b90509250929050565b61154a80620001dc6000396000f3fe608060405234801561001057600080fd5b50600436106100f55760003560e01c806391d1485411610097578063ca15c87311610066578063ca15c873146101f4578063d547741f14610207578063e968d9fa1461021a578063f36213671461022d576100f5565b806391d14854146101a6578063a217fddf146101c6578063bc3e1b7a146101ce578063bc61256e146101e1576100f5565b806377174f85116100d357806377174f851461014b5780637741459e1461016057806382dda22d146101735780639010d07c14610193576100f5565b8063248a9ca3146100fa5780632f2ff15d1461012357806336568abe14610138575b600080fd5b61010d61010836600461101b565b610235565b60405161011a91906110e2565b60405180910390f35b610136610131366004611033565b61024a565b005b610136610146366004611033565b61029b565b6101536102f7565b60405161011a9190611090565b61010d61016e366004610f78565b610313565b610186610181366004610f78565b610329565b60405161011a91906114d8565b6101536101a1366004611057565b61037d565b6101b96101b4366004611033565b61039c565b60405161011a91906110d7565b61010d6103b4565b61010d6101dc366004610fb0565b6103b9565b61010d6101ef366004610fb0565b610622565b61010d61020236600461101b565b610811565b610136610215366004611033565b610828565b61010d610228366004610ff0565b610862565b61010d610ac2565b60009081526020819052604090206002015490565b600082815260208190526040902060020154610268906101b4610b08565b61028d5760405162461bcd60e51b8152600401610284906111b9565b60405180910390fd5b6102978282610b0c565b5050565b6102a3610b08565b73ffffffffffffffffffffffffffffffffffffffff168173ffffffffffffffffffffffffffffffffffffffff16146102ed5760405162461bcd60e51b81526004016102849061147b565b6102978282610b8f565b60025473ffffffffffffffffffffffffffffffffffffffff1681565b600061031f8383610329565b5190505b92915050565b610331610f42565b5073ffffffffffffffffffffffffffffffffffffffff91821660009081526001602081815260408084209490951683529283529083902083518085019094528054845201549082015290565b60008281526020819052604081206103959083610c12565b9392505050565b60008281526020819052604081206103959083610c1e565b600081565b60006103e57faf9a8bb3cbd6b84fbccefa71ff73e26e798553c6914585a84886212a46a902793361039c565b6104015760405162461bcd60e51b81526004016102849061141e565b73ffffffffffffffffffffffffffffffffffffffff8085166000908152600160209081526040808320938716835292905220548211156104535760405162461bcd60e51b815260040161028490611216565b61045b610f42565b6104658585610329565b805160208201519192506104849161047e908690610c40565b90610c7a565b73ffffffffffffffffffffffffffffffffffffffff8087166000908152600160209081526040808320938916835292905220549092506104c49084610cbc565b73ffffffffffffffffffffffffffffffffffffffff8681166000908152600160208181526040808420948a16845293905291902091825501546105079083610cbc565b73ffffffffffffffffffffffffffffffffffffffff80871660009081526001602081815260408084208a8616855290915291829020019290925560025491517f9cc7a367000000000000000000000000000000000000000000000000000000008152911690639cc7a3679061058290889086906004016110b1565b600060405180830381600087803b15801561059c57600080fd5b505af11580156105b0573d6000803e3d6000fd5b50505050828473ffffffffffffffffffffffffffffffffffffffff168673ffffffffffffffffffffffffffffffffffffffff167f84ac76b4af9b0d66201e1a5c4154cbe6580a5a5431447ffdf2210e7fdf15359a8560405161061291906110e2565b60405180910390a4509392505050565b600061064e7faf9a8bb3cbd6b84fbccefa71ff73e26e798553c6914585a84886212a46a902793361039c565b61066a5760405162461bcd60e51b81526004016102849061141e565b6106748383610862565b73ffffffffffffffffffffffffffffffffffffffff8086166000908152600160209081526040808320938816835292905220549091506106b49083610cfe565b73ffffffffffffffffffffffffffffffffffffffff8581166000908152600160208181526040808420948916845293905291902091825501546106f79082610cfe565b73ffffffffffffffffffffffffffffffffffffffff8086166000908152600160208181526040808420898616855290915291829020019290925560025491517f0bae5b7c000000000000000000000000000000000000000000000000000000008152911690630bae5b7c9061077290879085906004016110b1565b600060405180830381600087803b15801561078c57600080fd5b505af11580156107a0573d6000803e3d6000fd5b50505050818373ffffffffffffffffffffffffffffffffffffffff168573ffffffffffffffffffffffffffffffffffffffff167f1d80c2b0b59d2f1543a8b483e392137e35f1d5ebfffcb3ad3a85c07a756363138460405161080291906110e2565b60405180910390a49392505050565b600081815260208190526040812061032390610d23565b600082815260208190526040902060020154610846906101b4610b08565b6102ed5760405162461bcd60e51b815260040161028490611307565b600080600260009054906101000a900473ffffffffffffffffffffffffffffffffffffffff1673ffffffffffffffffffffffffffffffffffffffff16639d23c4c76040518163ffffffff1660e01b815260040160206040518083038186803b1580156108cd57600080fd5b505afa1580156108e1573d6000803e3d6000fd5b505050506040513d601f19601f820116820180604052508101906109059190610f5c565b905073ffffffffffffffffffffffffffffffffffffffff811661093a5760405162461bcd60e51b8152600401610284906113c1565b6040517fd419935f00000000000000000000000000000000000000000000000000000000815260009073ffffffffffffffffffffffffffffffffffffffff83169063d419935f9061098f908890600401611090565b60206040518083038186803b1580156109a757600080fd5b505afa1580156109bb573d6000803e3d6000fd5b505050506040513d601f19601f820116820180604052508101906109df9190610f5c565b905073ffffffffffffffffffffffffffffffffffffffff8116610a145760405162461bcd60e51b8152600401610284906112aa565b6040517fb69fb7f9000000000000000000000000000000000000000000000000000000008152819073ffffffffffffffffffffffffffffffffffffffff82169063b69fb7f990610a689088906004016110e2565b60206040518083038186803b158015610a8057600080fd5b505afa158015610a94573d6000803e3d6000fd5b505050506040513d601f19601f82011682018060405250810190610ab89190611078565b9695505050505050565b7faf9a8bb3cbd6b84fbccefa71ff73e26e798553c6914585a84886212a46a9027981565b60006103958373ffffffffffffffffffffffffffffffffffffffff8416610d2e565b3390565b6000828152602081905260409020610b249082610ae6565b1561029757610b31610b08565b73ffffffffffffffffffffffffffffffffffffffff168173ffffffffffffffffffffffffffffffffffffffff16837f2f8788117e7eff1d82e926ec794901d17c78024a50270940304540a733656f0d60405160405180910390a45050565b6000828152602081905260409020610ba79082610d78565b1561029757610bb4610b08565b73ffffffffffffffffffffffffffffffffffffffff168173ffffffffffffffffffffffffffffffffffffffff16837ff6391f5c32d9c69d2a47ea670b442974b53935d1edc7fd64eb21e047a839171b60405160405180910390a45050565b60006103958383610d9a565b60006103958373ffffffffffffffffffffffffffffffffffffffff8416610ddf565b600082610c4f57506000610323565b82820282848281610c5c57fe5b04146103955760405162461bcd60e51b815260040161028490611364565b600061039583836040518060400160405280601a81526020017f536166654d6174683a206469766973696f6e206279207a65726f000000000000815250610df7565b600061039583836040518060400160405280601f81526020017f536166654d6174683a207375627472616374696f6e20756e646572666c6f7700815250610e2e565b6000828201838110156103955760405162461bcd60e51b815260040161028490611273565b600061032382610e5a565b6000610d3a8383610ddf565b610d7057508154600181810184556000848152602080822090930184905584548482528286019093526040902091909155610323565b506000610323565b60006103958373ffffffffffffffffffffffffffffffffffffffff8416610e5e565b81546000908210610dbd5760405162461bcd60e51b81526004016102849061115c565b826000018281548110610dcc57fe5b9060005260206000200154905092915050565b60009081526001919091016020526040902054151590565b60008183610e185760405162461bcd60e51b815260040161028491906110eb565b506000838581610e2457fe5b0495945050505050565b60008184841115610e525760405162461bcd60e51b815260040161028491906110eb565b505050900390565b5490565b60008181526001830160205260408120548015610f385783547fffffffffffffffffffffffffffffffffffffffffffffffffffffffffffffffff8083019190810190600090879083908110610eaf57fe5b9060005260206000200154905080876000018481548110610ecc57fe5b600091825260208083209091019290925582815260018981019092526040902090840190558654879080610efc57fe5b60019003818190600052602060002001600090559055866001016000878152602001908152602001600020600090556001945050505050610323565b6000915050610323565b604051806040016040528060008152602001600081525090565b600060208284031215610f6d578081fd5b8151610395816114ef565b60008060408385031215610f8a578081fd5b8235610f95816114ef565b91506020830135610fa5816114ef565b809150509250929050565b600080600060608486031215610fc4578081fd5b8335610fcf816114ef565b92506020840135610fdf816114ef565b929592945050506040919091013590565b60008060408385031215611002578182fd5b823561100d816114ef565b946020939093013593505050565b60006020828403121561102c578081fd5b5035919050565b60008060408385031215611045578182fd5b823591506020830135610fa5816114ef565b60008060408385031215611069578182fd5b50508035926020909101359150565b600060208284031215611089578081fd5b5051919050565b73ffffffffffffffffffffffffffffffffffffffff91909116815260200190565b73ffffffffffffffffffffffffffffffffffffffff929092168252602082015260400190565b901515815260200190565b90815260200190565b6000602080835283518082850152825b81811015611117578581018301518582016040015282016110fb565b818111156111285783604083870101525b50601f017fffffffffffffffffffffffffffffffffffffffffffffffffffffffffffffffe016929092016040019392505050565b60208082526022908201527f456e756d657261626c655365743a20696e646578206f7574206f6620626f756e60408201527f6473000000000000000000000000000000000000000000000000000000000000606082015260800190565b6020808252602f908201527f416363657373436f6e74726f6c3a2073656e646572206d75737420626520616e60408201527f2061646d696e20746f206772616e740000000000000000000000000000000000606082015260800190565b6020808252602f908201527f4c4d3a3a72656d6f7665566f74696e67506f7765723a206e6f7420656e6f756760408201527f6820746f6b656e73207374616b65640000000000000000000000000000000000606082015260800190565b6020808252601b908201527f536166654d6174683a206164646974696f6e206f766572666c6f770000000000604082015260600190565b6020808252602d908201527f4c4d3a3a63616c63756c617465566f74696e67506f7765723a20746f6b656e2060408201527f6e6f7420737570706f7274656400000000000000000000000000000000000000606082015260800190565b60208082526030908201527f416363657373436f6e74726f6c3a2073656e646572206d75737420626520616e60408201527f2061646d696e20746f207265766f6b6500000000000000000000000000000000606082015260800190565b60208082526021908201527f536166654d6174683a206d756c7469706c69636174696f6e206f766572666c6f60408201527f7700000000000000000000000000000000000000000000000000000000000000606082015260800190565b6020808252602a908201527f4c4d3a3a63616c63756c617465566f74696e67506f7765723a2072656769737460408201527f7279206e6f742073657400000000000000000000000000000000000000000000606082015260800190565b60208082526021908201527f43616c6c6572206d7573742068617665204c4f434b45525f524f4c4520726f6c60408201527f6500000000000000000000000000000000000000000000000000000000000000606082015260800190565b6020808252602f908201527f416363657373436f6e74726f6c3a2063616e206f6e6c792072656e6f756e636560408201527f20726f6c657320666f722073656c660000000000000000000000000000000000606082015260800190565b815181526020918201519181019190915260400190565b73ffffffffffffffffffffffffffffffffffffffff8116811461151157600080fd5b5056fea26469706673582212209c13d272bc80746a9f11c740cc35e11fdd2224b876779a712deb947ced18acad64736f6c63430007030033",
  "devdoc": {
    "details": "Manages voting power for stakes that are locked within trusted contracts, but not in the Voting Power prism",
    "kind": "dev",
    "methods": {
      "calculateVotingPower(address,uint256)": {
        "params": {
          "amount": "amount of token that will be locked",
          "token": "token that will be locked"
        },
        "returns": {
          "_0": "resulting voting power"
        }
      },
      "constructor": {
        "params": {
          "_roleManager": "address that is in charge of assigning roles",
          "_votingPower": "VotingPower prism contract"
        }
      },
      "getAmountStaked(address,address)": {
        "params": {
          "stakedToken": "The staked token",
          "staker": "The user with staked tokens"
        },
        "returns": {
          "_0": "total amount staked"
        }
      },
      "getRoleAdmin(bytes32)": {
        "details": "Returns the admin role that controls `role`. See {grantRole} and {revokeRole}. To change a role's admin, use {_setRoleAdmin}."
      },
      "getRoleMember(bytes32,uint256)": {
        "details": "Returns one of the accounts that have `role`. `index` must be a value between 0 and {getRoleMemberCount}, non-inclusive. Role bearers are not sorted in any particular way, and their ordering may change at any point. WARNING: When using {getRoleMember} and {getRoleMemberCount}, make sure you perform all queries on the same block. See the following https://forum.openzeppelin.com/t/iterating-over-elements-on-enumerableset-in-openzeppelin-contracts/2296[forum post] for more information."
      },
      "getRoleMemberCount(bytes32)": {
        "details": "Returns the number of accounts that have `role`. Can be used together with {getRoleMember} to enumerate all bearers of a role."
      },
      "getStake(address,address)": {
        "params": {
          "stakedToken": "The staked token",
          "staker": "The user with staked tokens"
        },
        "returns": {
          "_0": "total staked"
        }
      },
      "grantRole(bytes32,address)": {
        "details": "Grants `role` to `account`. If `account` had not been already granted `role`, emits a {RoleGranted} event. Requirements: - the caller must have ``role``'s admin role."
      },
      "grantVotingPower(address,address,uint256)": {
        "params": {
          "receiver": "recipient of voting power",
          "token": "token that is locked",
          "tokenAmount": "amount of token that is locked"
        },
        "returns": {
          "votingPowerGranted": "amount of voting power granted"
        }
      },
      "hasRole(bytes32,address)": {
        "details": "Returns `true` if `account` has been granted `role`."
      },
      "removeVotingPower(address,address,uint256)": {
        "params": {
          "receiver": "holder of voting power",
          "token": "token that is being unlocked",
          "tokenAmount": "amount of token that is being unlocked"
        },
        "returns": {
          "votingPowerRemoved": "amount of voting power removed"
        }
      },
      "renounceRole(bytes32,address)": {
        "details": "Revokes `role` from the calling account. Roles are often managed via {grantRole} and {revokeRole}: this function's purpose is to provide a mechanism for accounts to lose their privileges if they are compromised (such as when a trusted device is misplaced). If the calling account had been granted `role`, emits a {RoleRevoked} event. Requirements: - the caller must be `account`."
      },
      "revokeRole(bytes32,address)": {
        "details": "Revokes `role` from `account`. If `account` had been granted `role`, emits a {RoleRevoked} event. Requirements: - the caller must have ``role``'s admin role."
      }
    },
    "title": "LockManager",
    "version": 1
  },
  "userdoc": {
    "events": {
      "StakeLocked(address,address,uint256,uint256)": {
        "notice": "An event that's emitted when a user's staked balance increases"
      },
      "StakeUnlocked(address,address,uint256,uint256)": {
        "notice": "An event that's emitted when a user's staked balance decreases"
      }
    },
    "kind": "user",
    "methods": {
      "LOCKER_ROLE()": {
        "notice": "Admin role to create voting power from locked stakes"
      },
      "calculateVotingPower(address,uint256)": {
        "notice": "Calculate the voting power that will result from locking `amount` of `token`"
      },
      "constructor": {
        "notice": "Create new LockManager contract"
      },
      "getAmountStaked(address,address)": {
        "notice": "Get total amount of tokens staked in contract by `staker`"
      },
      "getStake(address,address)": {
        "notice": "Get total staked amount and voting power from `stakedToken` staked in contract by `staker`"
      },
      "grantVotingPower(address,address,uint256)": {
        "notice": "Grant voting power from locked `tokenAmount` of `token`"
      },
      "removeVotingPower(address,address,uint256)": {
        "notice": "Remove voting power by unlocking `tokenAmount` of `token`"
      },
      "votingPower()": {
        "notice": "Voting power contract"
      }
    },
    "version": 1
  },
  "storageLayout": {
    "storage": [
      {
        "astId": 7032,
        "contract": "contracts/LockManager.sol:LockManager",
        "label": "_roles",
        "offset": 0,
        "slot": "0",
        "type": "t_mapping(t_bytes32,t_struct(RoleData)7028_storage)"
      },
      {
        "astId": 446,
        "contract": "contracts/LockManager.sol:LockManager",
        "label": "lockedStakes",
        "offset": 0,
        "slot": "1",
        "type": "t_mapping(t_address,t_mapping(t_address,t_struct(LockedStake)440_storage))"
      },
      {
        "astId": 449,
        "contract": "contracts/LockManager.sol:LockManager",
        "label": "votingPower",
        "offset": 0,
        "slot": "2",
        "type": "t_contract(IVotingPower)6898"
      }
    ],
    "types": {
      "t_address": {
        "encoding": "inplace",
        "label": "address",
        "numberOfBytes": "20"
      },
      "t_array(t_bytes32)dyn_storage": {
        "base": "t_bytes32",
        "encoding": "dynamic_array",
        "label": "bytes32[]",
        "numberOfBytes": "32"
      },
      "t_bytes32": {
        "encoding": "inplace",
        "label": "bytes32",
        "numberOfBytes": "32"
      },
      "t_contract(IVotingPower)6898": {
        "encoding": "inplace",
        "label": "contract IVotingPower",
        "numberOfBytes": "20"
      },
      "t_mapping(t_address,t_mapping(t_address,t_struct(LockedStake)440_storage))": {
        "encoding": "mapping",
        "key": "t_address",
        "label": "mapping(address => mapping(address => struct LockManager.LockedStake))",
        "numberOfBytes": "32",
        "value": "t_mapping(t_address,t_struct(LockedStake)440_storage)"
      },
      "t_mapping(t_address,t_struct(LockedStake)440_storage)": {
        "encoding": "mapping",
        "key": "t_address",
        "label": "mapping(address => struct LockManager.LockedStake)",
        "numberOfBytes": "32",
        "value": "t_struct(LockedStake)440_storage"
      },
      "t_mapping(t_bytes32,t_struct(RoleData)7028_storage)": {
        "encoding": "mapping",
        "key": "t_bytes32",
        "label": "mapping(bytes32 => struct AccessControl.RoleData)",
        "numberOfBytes": "32",
        "value": "t_struct(RoleData)7028_storage"
      },
      "t_mapping(t_bytes32,t_uint256)": {
        "encoding": "mapping",
        "key": "t_bytes32",
        "label": "mapping(bytes32 => uint256)",
        "numberOfBytes": "32",
        "value": "t_uint256"
      },
      "t_struct(AddressSet)7887_storage": {
        "encoding": "inplace",
        "label": "struct EnumerableSet.AddressSet",
        "members": [
          {
            "astId": 7886,
            "contract": "contracts/LockManager.sol:LockManager",
            "label": "_inner",
            "offset": 0,
            "slot": "0",
            "type": "t_struct(Set)7622_storage"
          }
        ],
        "numberOfBytes": "64"
      },
      "t_struct(LockedStake)440_storage": {
        "encoding": "inplace",
        "label": "struct LockManager.LockedStake",
        "members": [
          {
            "astId": 437,
            "contract": "contracts/LockManager.sol:LockManager",
            "label": "amount",
            "offset": 0,
            "slot": "0",
            "type": "t_uint256"
          },
          {
            "astId": 439,
            "contract": "contracts/LockManager.sol:LockManager",
            "label": "votingPower",
            "offset": 0,
            "slot": "1",
            "type": "t_uint256"
          }
        ],
        "numberOfBytes": "64"
      },
      "t_struct(RoleData)7028_storage": {
        "encoding": "inplace",
        "label": "struct AccessControl.RoleData",
        "members": [
          {
            "astId": 7025,
            "contract": "contracts/LockManager.sol:LockManager",
            "label": "members",
            "offset": 0,
            "slot": "0",
            "type": "t_struct(AddressSet)7887_storage"
          },
          {
            "astId": 7027,
            "contract": "contracts/LockManager.sol:LockManager",
            "label": "adminRole",
            "offset": 0,
            "slot": "2",
            "type": "t_bytes32"
          }
        ],
        "numberOfBytes": "96"
      },
      "t_struct(Set)7622_storage": {
        "encoding": "inplace",
        "label": "struct EnumerableSet.Set",
        "members": [
          {
            "astId": 7617,
            "contract": "contracts/LockManager.sol:LockManager",
            "label": "_values",
            "offset": 0,
            "slot": "0",
            "type": "t_array(t_bytes32)dyn_storage"
          },
          {
            "astId": 7621,
            "contract": "contracts/LockManager.sol:LockManager",
            "label": "_indexes",
            "offset": 0,
            "slot": "1",
            "type": "t_mapping(t_bytes32,t_uint256)"
          }
        ],
        "numberOfBytes": "64"
      },
      "t_uint256": {
        "encoding": "inplace",
        "label": "uint256",
        "numberOfBytes": "32"
      }
    }
  }
}