{
  "address": "0x77F227C5828f38596081DC03519DEC8606211BEF",
  "abi": [
    {
      "inputs": [
        {
          "internalType": "address",
          "name": "_owner",
          "type": "address"
        },
        {
          "internalType": "address[]",
          "name": "_tokens",
          "type": "address[]"
        },
        {
          "internalType": "address[]",
          "name": "_formulas",
          "type": "address[]"
        }
      ],
      "stateMutability": "nonpayable",
      "type": "constructor"
    },
    {
      "anonymous": false,
      "inputs": [
        {
          "indexed": true,
          "internalType": "address",
          "name": "oldOwner",
          "type": "address"
        },
        {
          "indexed": true,
          "internalType": "address",
          "name": "newOwner",
          "type": "address"
        }
      ],
      "name": "ChangedOwner",
      "type": "event"
    },
    {
      "anonymous": false,
      "inputs": [
        {
          "indexed": true,
          "internalType": "address",
          "name": "token",
          "type": "address"
        },
        {
          "indexed": true,
          "internalType": "address",
          "name": "formula",
          "type": "address"
        }
      ],
      "name": "TokenFormulaUpdated",
      "type": "event"
    },
    {
      "anonymous": false,
      "inputs": [
        {
          "indexed": true,
          "internalType": "address",
          "name": "token",
          "type": "address"
        }
      ],
      "name": "TokenRemoved",
      "type": "event"
    },
    {
      "inputs": [
        {
          "internalType": "address",
          "name": "newOwner",
          "type": "address"
        }
      ],
      "name": "changeOwner",
      "outputs": [],
      "stateMutability": "nonpayable",
      "type": "function"
    },
    {
      "inputs": [],
      "name": "owner",
      "outputs": [
        {
          "internalType": "address",
          "name": "",
          "type": "address"
        }
      ],
      "stateMutability": "view",
      "type": "function"
    },
    {
      "inputs": [
        {
          "internalType": "address",
          "name": "token",
          "type": "address"
        }
      ],
      "name": "removeToken",
      "outputs": [],
      "stateMutability": "nonpayable",
      "type": "function"
    },
    {
      "inputs": [
        {
          "internalType": "address",
          "name": "token",
          "type": "address"
        },
        {
          "internalType": "address",
          "name": "formula",
          "type": "address"
        }
      ],
      "name": "setTokenFormula",
      "outputs": [],
      "stateMutability": "nonpayable",
      "type": "function"
    },
    {
      "inputs": [
        {
          "internalType": "address",
          "name": "",
          "type": "address"
        }
      ],
      "name": "tokenFormulas",
      "outputs": [
        {
          "internalType": "address",
          "name": "",
          "type": "address"
        }
      ],
      "stateMutability": "view",
      "type": "function"
    }
  ],
  "transactionHash": "0xfec754ed5b0f524dfeaad781d10b55ed69d81b6ee50ccdc37e960f7c6fd92f94",
  "args": [
    "0x1Dd981D51f10f2Dd79f8a0796f30a577B06E79d2",
    [
      "0x59414b3089ce2AF0010e7523Dea7E2b35d776ec7",
      "0xd2F01cd87A43962fD93C21e07c1a420714Cc94C9"
    ],
    [
      "0x1BA4f0a66445777AE0Be89DCB72316c9f02cC75A",
      "0x6662a6B70316ae373b56855b2CDa521c59F6e2C2"
    ]
  ],
  "solcInputHash": "a72b57ff02afb091a1ceacd47ca02c47",
  "bytecode": "0x608060405234801561001057600080fd5b506040516107e93803806107e98339818101604052606081101561003357600080fd5b81516020830180516040519294929383019291908464010000000082111561005a57600080fd5b90830190602082018581111561006f57600080fd5b825186602082028301116401000000008211171561008c57600080fd5b82525081516020918201928201910280838360005b838110156100b95781810151838201526020016100a1565b50505050905001604052602001805160405193929190846401000000008211156100e257600080fd5b9083019060208201858111156100f757600080fd5b825186602082028301116401000000008211171561011457600080fd5b82525081516020918201928201910280838360005b83811015610141578181015183820152602001610129565b5050505090500160405250505080518251146101a4576040805162461bcd60e51b815260206004820181905260248201527f54523a3a636f6e7374727563746f723a206e6f742073616d65206c656e677468604482015290519081900360640190fd5b60005b825181101561028e578181815181106101bc57fe5b6020026020010151600160008584815181106101d457fe5b60200260200101516001600160a01b03166001600160a01b0316815260200190815260200160002060006101000a8154816001600160a01b0302191690836001600160a01b0316021790555081818151811061022c57fe5b60200260200101516001600160a01b031683828151811061024957fe5b60200260200101516001600160a01b03167fbe88140e48d23d6599570a0b245c3dac61bd4efb4f875e619c5d7d86513bb2f660405160405180910390a36001016101a7565b50600080546001600160a01b0319166001600160a01b0385811691909117808355604051911691907f2748503f8f31d8071821d1d5144384ba6a465036cda17fa1629a8a2509ccee0e908290a35050506104fc806102ed6000396000f3fe608060405234801561001057600080fd5b50600436106100675760003560e01c80638da5cb5b116100505780638da5cb5b146100dc578063a6f9dae11461010d578063d419935f1461014057610067565b8063190ddf041461006c5780635fa7b584146100a9575b600080fd5b6100a76004803603604081101561008257600080fd5b5073ffffffffffffffffffffffffffffffffffffffff81358116916020013516610173565b005b6100a7600480360360208110156100bf57600080fd5b503573ffffffffffffffffffffffffffffffffffffffff16610275565b6100e461036f565b6040805173ffffffffffffffffffffffffffffffffffffffff9092168252519081900360200190f35b6100a76004803603602081101561012357600080fd5b503573ffffffffffffffffffffffffffffffffffffffff1661038b565b6100e46004803603602081101561015657600080fd5b503573ffffffffffffffffffffffffffffffffffffffff1661049e565b60005473ffffffffffffffffffffffffffffffffffffffff1633146101f957604080517f08c379a000000000000000000000000000000000000000000000000000000000815260206004820152600960248201527f6e6f74206f776e65720000000000000000000000000000000000000000000000604482015290519081900360640190fd5b73ffffffffffffffffffffffffffffffffffffffff82811660008181526001602052604080822080547fffffffffffffffffffffffff0000000000000000000000000000000000000000169486169485179055517fbe88140e48d23d6599570a0b245c3dac61bd4efb4f875e619c5d7d86513bb2f69190a35050565b60005473ffffffffffffffffffffffffffffffffffffffff1633146102fb57604080517f08c379a000000000000000000000000000000000000000000000000000000000815260206004820152600960248201527f6e6f74206f776e65720000000000000000000000000000000000000000000000604482015290519081900360640190fd5b73ffffffffffffffffffffffffffffffffffffffff811660008181526001602052604080822080547fffffffffffffffffffffffff0000000000000000000000000000000000000000169055517f4c910b69fe65a61f7531b9c5042b2329ca7179c77290aa7e2eb3afa3c8511fd39190a250565b60005473ffffffffffffffffffffffffffffffffffffffff1681565b60005473ffffffffffffffffffffffffffffffffffffffff16331461041157604080517f08c379a000000000000000000000000000000000000000000000000000000000815260206004820152600960248201527f6e6f74206f776e65720000000000000000000000000000000000000000000000604482015290519081900360640190fd5b6000805460405173ffffffffffffffffffffffffffffffffffffffff808516939216917f2748503f8f31d8071821d1d5144384ba6a465036cda17fa1629a8a2509ccee0e91a3600080547fffffffffffffffffffffffff00000000000000000000000000000000000000001673ffffffffffffffffffffffffffffffffffffffff92909216919091179055565b60016020526000908152604090205473ffffffffffffffffffffffffffffffffffffffff168156fea26469706673582212207f54be2e8b9f323ff764fbb6b8a489ab49899221e367dfa3f7fa4346e016d76164736f6c63430007030033",
  "devdoc": {
    "details": "Registry of tokens that may be staked for voting power and their conversion formulas",
    "kind": "dev",
    "methods": {
      "changeOwner(address)": {
        "params": {
          "newOwner": "New owner address"
        }
      },
      "constructor": {
        "params": {
          "_formulas": "formula contracts for initial tokens",
          "_owner": "contract owner",
          "_tokens": "initially supported tokens"
        }
      },
      "removeToken(address)": {
        "params": {
          "token": "token address to remove"
        }
      },
      "setTokenFormula(address,address)": {
        "params": {
          "formula": "address of formula contract",
          "token": "token for formula"
        }
      }
    },
    "title": "TokenRegistry",
    "version": 1
  },
  "userdoc": {
    "events": {
      "ChangedOwner(address,address)": {
        "notice": "Event emitted when the owner of the contract is updated"
      },
      "TokenFormulaUpdated(address,address)": {
        "notice": "Event emitted when a token formula is updated"
      },
      "TokenRemoved(address)": {
        "notice": "Event emitted when a supported token is removed"
      }
    },
    "kind": "user",
    "methods": {
      "changeOwner(address)": {
        "notice": "Change owner of token registry contract"
      },
      "constructor": {
        "notice": "Construct a new token registry contract"
      },
      "owner()": {
        "notice": "Current owner of this contract"
      },
      "removeToken(address)": {
        "notice": "Remove conversion formula address for token"
      },
      "setTokenFormula(address,address)": {
        "notice": "Set conversion formula address for token"
      },
      "tokenFormulas(address)": {
        "notice": "mapping of tokens to voting power calculation (formula) smart contract addresses"
      }
    },
    "version": 1
  },
  "storageLayout": {
    "storage": [
      {
        "astId": 5,
        "contract": "contracts/TokenRegistry.sol:TokenRegistry",
        "label": "owner",
        "offset": 0,
        "slot": "0",
        "type": "t_address"
      },
      {
        "astId": 10,
        "contract": "contracts/TokenRegistry.sol:TokenRegistry",
        "label": "tokenFormulas",
        "offset": 0,
        "slot": "1",
        "type": "t_mapping(t_address,t_address)"
      }
    ],
    "types": {
      "t_address": {
        "encoding": "inplace",
        "label": "address",
        "numberOfBytes": "20"
      },
      "t_mapping(t_address,t_address)": {
        "encoding": "mapping",
        "key": "t_address",
        "label": "mapping(address => address)",
        "numberOfBytes": "32",
        "value": "t_address"
      }
    }
  }
}