{
  "address": "0x1A89939f66a04e61ab2389851b7D9dc483e6fd35",
  "abi": [
    {
      "anonymous": false,
      "inputs": [
        {
          "indexed": true,
          "internalType": "address",
          "name": "oldOwner",
          "type": "address"
        },
        {
          "indexed": true,
          "internalType": "address",
          "name": "newOwner",
          "type": "address"
        }
      ],
      "name": "ChangedOwner",
      "type": "event"
    },
    {
      "anonymous": false,
      "inputs": [
        {
          "indexed": true,
          "internalType": "address",
          "name": "user",
          "type": "address"
        },
        {
          "indexed": true,
          "internalType": "address",
          "name": "token",
          "type": "address"
        },
        {
          "indexed": true,
          "internalType": "uint256",
          "name": "amount",
          "type": "uint256"
        },
        {
          "indexed": false,
          "internalType": "uint256",
          "name": "votingPower",
          "type": "uint256"
        }
      ],
      "name": "Staked",
      "type": "event"
    },
    {
      "anonymous": false,
      "inputs": [
        {
          "indexed": true,
          "internalType": "address",
          "name": "voter",
          "type": "address"
        },
        {
          "indexed": true,
          "internalType": "uint256",
          "name": "previousBalance",
          "type": "uint256"
        },
        {
          "indexed": true,
          "internalType": "uint256",
          "name": "newBalance",
          "type": "uint256"
        }
      ],
      "name": "VotingPowerChanged",
      "type": "event"
    },
    {
      "anonymous": false,
      "inputs": [
        {
          "indexed": true,
          "internalType": "address",
          "name": "user",
          "type": "address"
        },
        {
          "indexed": true,
          "internalType": "address",
          "name": "token",
          "type": "address"
        },
        {
          "indexed": true,
          "internalType": "uint256",
          "name": "amount",
          "type": "uint256"
        },
        {
          "indexed": false,
          "internalType": "uint256",
          "name": "votingPower",
          "type": "uint256"
        }
      ],
      "name": "Withdrawn",
      "type": "event"
    },
    {
      "inputs": [
        {
          "internalType": "address",
          "name": "account",
          "type": "address"
        },
        {
          "internalType": "uint256",
          "name": "amount",
          "type": "uint256"
        }
      ],
      "name": "addVotingPowerForLockedTokens",
      "outputs": [],
      "stateMutability": "nonpayable",
      "type": "function"
    },
    {
      "inputs": [
        {
          "internalType": "address",
          "name": "account",
          "type": "address"
        }
      ],
      "name": "balanceOf",
      "outputs": [
        {
          "internalType": "uint256",
          "name": "",
          "type": "uint256"
        }
      ],
      "stateMutability": "view",
      "type": "function"
    },
    {
      "inputs": [
        {
          "internalType": "address",
          "name": "account",
          "type": "address"
        },
        {
          "internalType": "uint256",
          "name": "blockNumber",
          "type": "uint256"
        }
      ],
      "name": "balanceOfAt",
      "outputs": [
        {
          "internalType": "uint256",
          "name": "",
          "type": "uint256"
        }
      ],
      "stateMutability": "view",
      "type": "function"
    },
    {
      "inputs": [
        {
          "internalType": "contract PrismProxy",
          "name": "prism",
          "type": "address"
        }
      ],
      "name": "become",
      "outputs": [],
      "stateMutability": "nonpayable",
      "type": "function"
    },
    {
      "inputs": [
        {
          "internalType": "address",
          "name": "newOwner",
          "type": "address"
        }
      ],
      "name": "changeOwner",
      "outputs": [],
      "stateMutability": "nonpayable",
      "type": "function"
    },
    {
      "inputs": [],
      "name": "decimals",
      "outputs": [
        {
          "internalType": "uint8",
          "name": "",
          "type": "uint8"
        }
      ],
      "stateMutability": "pure",
      "type": "function"
    },
    {
      "inputs": [
        {
          "internalType": "address",
          "name": "staker",
          "type": "address"
        },
        {
          "internalType": "address",
          "name": "stakedToken",
          "type": "address"
        }
      ],
      "name": "getAmountStaked",
      "outputs": [
        {
          "internalType": "uint256",
          "name": "",
          "type": "uint256"
        }
      ],
      "stateMutability": "view",
      "type": "function"
    },
    {
      "inputs": [
        {
          "internalType": "address",
          "name": "staker",
          "type": "address"
        },
        {
          "internalType": "address",
          "name": "stakedToken",
          "type": "address"
        }
      ],
      "name": "getStake",
      "outputs": [
        {
          "components": [
            {
              "internalType": "uint256",
              "name": "amount",
              "type": "uint256"
            },
            {
              "internalType": "uint256",
              "name": "votingPower",
              "type": "uint256"
            }
          ],
          "internalType": "struct Stake",
          "name": "",
          "type": "tuple"
        }
      ],
      "stateMutability": "view",
      "type": "function"
    },
    {
      "inputs": [
        {
          "internalType": "address",
          "name": "_yakToken",
          "type": "address"
        }
      ],
      "name": "initialize",
      "outputs": [],
      "stateMutability": "nonpayable",
      "type": "function"
    },
    {
      "inputs": [],
      "name": "lockManager",
      "outputs": [
        {
          "internalType": "address",
          "name": "",
          "type": "address"
        }
      ],
      "stateMutability": "view",
      "type": "function"
    },
    {
      "inputs": [],
      "name": "owner",
      "outputs": [
        {
          "internalType": "address",
          "name": "",
          "type": "address"
        }
      ],
      "stateMutability": "view",
      "type": "function"
    },
    {
      "inputs": [
        {
          "internalType": "address",
          "name": "account",
          "type": "address"
        },
        {
          "internalType": "uint256",
          "name": "amount",
          "type": "uint256"
        }
      ],
      "name": "removeVotingPowerForUnlockedTokens",
      "outputs": [],
      "stateMutability": "nonpayable",
      "type": "function"
    },
    {
      "inputs": [
        {
          "internalType": "address",
          "name": "newLockManager",
          "type": "address"
        }
      ],
      "name": "setLockManager",
      "outputs": [],
      "stateMutability": "nonpayable",
      "type": "function"
    },
    {
      "inputs": [
        {
          "internalType": "address",
          "name": "registry",
          "type": "address"
        }
      ],
      "name": "setTokenRegistry",
      "outputs": [],
      "stateMutability": "nonpayable",
      "type": "function"
    },
    {
      "inputs": [
        {
          "internalType": "address",
          "name": "token",
          "type": "address"
        },
        {
          "internalType": "uint256",
          "name": "amount",
          "type": "uint256"
        }
      ],
      "name": "stake",
      "outputs": [],
      "stateMutability": "nonpayable",
      "type": "function"
    },
    {
      "inputs": [
        {
          "internalType": "uint256",
          "name": "amount",
          "type": "uint256"
        },
        {
          "internalType": "uint256",
          "name": "deadline",
          "type": "uint256"
        },
        {
          "internalType": "uint8",
          "name": "v",
          "type": "uint8"
        },
        {
          "internalType": "bytes32",
          "name": "r",
          "type": "bytes32"
        },
        {
          "internalType": "bytes32",
          "name": "s",
          "type": "bytes32"
        }
      ],
      "name": "stakeWithPermit",
      "outputs": [],
      "stateMutability": "nonpayable",
      "type": "function"
    },
    {
      "inputs": [],
      "name": "tokenRegistry",
      "outputs": [
        {
          "internalType": "address",
          "name": "",
          "type": "address"
        }
      ],
      "stateMutability": "view",
      "type": "function"
    },
    {
      "inputs": [
        {
          "internalType": "address",
          "name": "token",
          "type": "address"
        },
        {
          "internalType": "uint256",
          "name": "amount",
          "type": "uint256"
        }
      ],
      "name": "withdraw",
      "outputs": [],
      "stateMutability": "nonpayable",
      "type": "function"
    },
    {
      "inputs": [],
      "name": "yakToken",
      "outputs": [
        {
          "internalType": "address",
          "name": "",
          "type": "address"
        }
      ],
      "stateMutability": "view",
      "type": "function"
    }
  ],
  "transactionHash": "0x72a6d7ee0ea643104a122764bc556aa97a78881850fa3db5b861cd34edabfb06",
  "args": [],
  "solcInputHash": "cbca27c4fdf8e9078ea5771556254fe0",
  "bytecode": "0x608060405234801561001057600080fd5b506127c7806100206000396000f3fe608060405234801561001057600080fd5b50600436106101515760003560e01c80639cc7a367116100cd578063adc9772e11610081578063deedfdbd11610066578063deedfdbd1461028e578063ecd9ba82146102a1578063f3fef3a3146102b457610151565b8063adc9772e14610268578063c4d66de81461027b57610151565b8063a1194c8e116100b2578063a1194c8e1461023a578063a6f9dae11461024d578063acca30a21461026057610151565b80639cc7a3671461021f5780639d23c4c71461023257610151565b806370a08231116101245780637b3abeae116101095780637b3abeae146101e257806382dda22d146101f75780638da5cb5b1461021757610151565b806370a08231146101bc5780637741459e146101cf57610151565b80630bae5b7c14610156578063313ce5671461016b57806335a5af92146101895780634ee2cd7e1461019c575b600080fd5b610169610164366004611d9f565b6102c7565b005b610173610370565b6040516101809190612710565b60405180910390f35b610169610197366004611d2f565b610375565b6101af6101aa366004611d9f565b61040c565b6040516101809190612707565b6101af6101ca366004611d2f565b610603565b6101af6101dd366004611d67565b610676565b6101ea61068a565b6040516101809190611e6b565b61020a610205366004611d67565b6106a8565b60405161018091906126f0565b6101ea6106ff565b61016961022d366004611d9f565b61071d565b6101ea6107ab565b610169610248366004611d2f565b6107c9565b61016961025b366004611d2f565b610901565b6101ea610a14565b610169610276366004611d9f565b610a32565b610169610289366004611d2f565b610d78565b61016961029c366004611d2f565b610e7d565b6101696102af366004611e02565b610f14565b6101696102c2366004611d9f565b61124e565b60335460ff166102f25760405162461bcd60e51b81526004016102e99061265c565b60405180910390fd5b6033805460ff1916905560006103066112f3565b9050600082116103285760405162461bcd60e51b81526004016102e9906124e8565b60038101546001600160a01b031633146103545760405162461bcd60e51b81526004016102e9906122a9565b61035e8383611317565b50506033805460ff1916600117905550565b601290565b600061037f6112f3565b60028101549091506001600160a01b031615806103a8575060028101546001600160a01b031633145b6103c45760405162461bcd60e51b81526004016102e99061241d565b60006103ce6112f3565b60040180547fffffffffffffffffffffffff0000000000000000000000000000000000000000166001600160a01b0394909416939093179092555050565b600043821061042d5760405162461bcd60e51b81526004016102e990612090565b60006104376113a8565b6001600160a01b038516600090815260018201602052604090205490915063ffffffff168061046b576000925050506105fd565b6001600160a01b03851660009081526020838152604080832063ffffffff6000198601811685529252909120541684106104d8576001600160a01b0385166000908152602092835260408082206000199390930163ffffffff1682529190925290206001015490506105fd565b6001600160a01b03851660009081526020838152604080832083805290915290205463ffffffff16841015610512576000925050506105fd565b600060001982015b8163ffffffff168163ffffffff1611156105ca57600282820363ffffffff16048103610544611cfe565b506001600160a01b03881660009081526020868152604080832063ffffffff8086168552908352928190208151808301909252805490931680825260019093015491810191909152908814156105a5576020015195506105fd945050505050565b805163ffffffff168811156105bc578193506105c3565b6001820392505b505061051a565b506001600160a01b03861660009081526020938452604080822063ffffffff909316825291909352909120600101549150505b92915050565b60008061060e6113a8565b6001600160a01b038416600090815260018201602052604090205490915063ffffffff168061063e57600061066e565b6001600160a01b03841660009081526020838152604080832063ffffffff60001986011684529091529020600101545b949350505050565b600061068283836106a8565b519392505050565b6000806106956112f3565b600101546001600160a01b031691505090565b6106b0611d15565b60006106ba6113cc565b6001600160a01b038086166000908152602092835260408082209287168252918352819020815180830190925280548252600101549181019190915291505092915050565b60008061070a6112f3565b600201546001600160a01b031691505090565b60335460ff1661073f5760405162461bcd60e51b81526004016102e99061265c565b6033805460ff1916905560006107536112f3565b9050600082116107755760405162461bcd60e51b81526004016102e990612545565b60038101546001600160a01b031633146107a15760405162461bcd60e51b81526004016102e9906123c0565b61035e83836113f0565b6000806107b66112f3565b600401546001600160a01b031691505090565b806001600160a01b0316633e47158c6040518163ffffffff1660e01b815260040160206040518083038186803b15801561080257600080fd5b505afa158015610816573d6000803e3d6000fd5b505050506040513d601f19601f8201168201806040525081019061083a9190611d4b565b6001600160a01b0316336001600160a01b03161461086a5760405162461bcd60e51b81526004016102e990611f9f565b806001600160a01b03166394d8fbd06040518163ffffffff1660e01b8152600401602060405180830381600087803b1580156108a557600080fd5b505af11580156108b9573d6000803e3d6000fd5b505050506040513d601f19601f820116820180604052508101906108dd9190611dca565b15156001146108fe5760405162461bcd60e51b81526004016102e990612363565b50565b600061090b6112f3565b60028101549091506001600160a01b03161580610934575060028101546001600160a01b031633145b6109505760405162461bcd60e51b81526004016102e99061241d565b6001600160a01b0382161580159061097157506001600160a01b0382163014155b61098d5760405162461bcd60e51b81526004016102e9906121b8565b60006109976112f3565b60028101546040519192506001600160a01b03808616929116907f2748503f8f31d8071821d1d5144384ba6a465036cda17fa1629a8a2509ccee0e90600090a360020180547fffffffffffffffffffffffff0000000000000000000000000000000000000000166001600160a01b03939093169290921790915550565b600080610a1f6112f3565b600301546001600160a01b031691505090565b60335460ff16610a545760405162461bcd60e51b81526004016102e99061265c565b6033805460ff191690558181610a7c5760405162461bcd60e51b81526004016102e990611f68565b6040517f70a0823100000000000000000000000000000000000000000000000000000000815282906001600160a01b038316906370a0823190610ac3903390600401611e6b565b60206040518083038186803b158015610adb57600080fd5b505afa158015610aef573d6000803e3d6000fd5b505050506040513d601f19601f82011682018060405250810190610b139190611dea565b1015610b315760405162461bcd60e51b81526004016102e9906120ed565b6040517fdd62ed3e00000000000000000000000000000000000000000000000000000000815282906001600160a01b0383169063dd62ed3e90610b7a9033903090600401611e7f565b60206040518083038186803b158015610b9257600080fd5b505afa158015610ba6573d6000803e3d6000fd5b505050506040513d601f19601f82011682018060405250810190610bca9190611dea565b1015610be85760405162461bcd60e51b81526004016102e9906125ff565b6000610bf26112f3565b6004808201546040517fd419935f0000000000000000000000000000000000000000000000000000000081529293506000926001600160a01b039091169163d419935f91610c4291899101611e6b565b60206040518083038186803b158015610c5a57600080fd5b505afa158015610c6e573d6000803e3d6000fd5b505050506040513d601f19601f82011682018060405250810190610c929190611d4b565b90506001600160a01b038116610cba5760405162461bcd60e51b81526004016102e990612215565b6040517fb69fb7f900000000000000000000000000000000000000000000000000000000815281906000906001600160a01b0383169063b69fb7f990610d04908990600401612707565b60206040518083038186803b158015610d1c57600080fd5b505afa158015610d30573d6000803e3d6000fd5b505050506040513d601f19601f82011682018060405250810190610d549190611dea565b9050610d623388888461146b565b50506033805460ff191660011790555050505050565b600054610100900460ff1680610d915750610d91611569565b80610d9f575060005460ff16155b610dbb5760405162461bcd60e51b81526004016102e990612306565b600054610100900460ff16158015610e03576000805460ff197fffffffffffffffffffffffffffffffffffffffffffffffffffffffffffff00ff909116610100171660011790555b610e0b61156f565b6000610e156112f3565b60010180547fffffffffffffffffffffffff0000000000000000000000000000000000000000166001600160a01b038516179055508015610e7957600080547fffffffffffffffffffffffffffffffffffffffffffffffffffffffffffff00ff1690555b5050565b6000610e876112f3565b60028101549091506001600160a01b03161580610eb0575060028101546001600160a01b031633145b610ecc5760405162461bcd60e51b81526004016102e99061241d565b6000610ed66112f3565b60030180547fffffffffffffffffffffffff0000000000000000000000000000000000000000166001600160a01b0394909416939093179092555050565b60335460ff16610f365760405162461bcd60e51b81526004016102e99061265c565b6033805460ff1916905584610f5d5760405162461bcd60e51b81526004016102e99061215b565b6000610f676112f3565b60018101546040517f70a0823100000000000000000000000000000000000000000000000000000000815291925087916001600160a01b03909116906370a0823190610fb7903390600401611e6b565b60206040518083038186803b158015610fcf57600080fd5b505afa158015610fe3573d6000803e3d6000fd5b505050506040513d601f19601f820116820180604052508101906110079190611dea565b10156110255760405162461bcd60e51b81526004016102e990611ffc565b60018101546040517fd505accf0000000000000000000000000000000000000000000000000000000081526001600160a01b039091169063d505accf9061107c90339030908b908b908b908b908b90600401611e99565b600060405180830381600087803b15801561109657600080fd5b505af11580156110aa573d6000803e3d6000fd5b50505060048083015460018401546040517fd419935f000000000000000000000000000000000000000000000000000000008152600094506001600160a01b039283169363d419935f9361110093169101611e6b565b60206040518083038186803b15801561111857600080fd5b505afa15801561112c573d6000803e3d6000fd5b505050506040513d601f19601f820116820180604052508101906111509190611d4b565b90506001600160a01b0381166111785760405162461bcd60e51b81526004016102e990612215565b60018201546040517fb69fb7f90000000000000000000000000000000000000000000000000000000081526001600160a01b0390911690600090829063b69fb7f9906111c8908c90600401612707565b60206040518083038186803b1580156111e057600080fd5b505afa1580156111f4573d6000803e3d6000fd5b505050506040513d601f19601f820116820180604052508101906112189190611dea565b60018501549091506112369033906001600160a01b03168b8461146b565b50506033805460ff1916600117905550505050505050565b60335460ff166112705760405162461bcd60e51b81526004016102e99061265c565b6033805460ff19169055806112975760405162461bcd60e51b81526004016102e990612124565b61129f611d15565b6112a933846106a8565b905060006112d282600001516112cc84602001518661163890919063ffffffff16565b90611679565b90506112e0338585846116bb565b50506033805460ff191660011790555050565b7f6d6a6fc321e0562f469846e9b1d74d90faeed9d71336854ad7fe2be150ff9f2090565b60006113216113a8565b6001600160a01b038416600090815260018201602052604081205491925063ffffffff9091169081611354576000611384565b6001600160a01b03851660009081526020848152604080832063ffffffff60001987011684529091529020600101545b905060006113928286611841565b90506113a086848484611866565b505050505050565b7f97ada73c2617b57999fe0c39e0cd251038e142d18fa592f9135b3c4884c92cf190565b7fb436861a9ea50c2256cd6ef2eb5e3092874d3eddb554844f2d197b6df51da09890565b60006113fa6113a8565b6001600160a01b038416600090815260018201602052604081205491925063ffffffff909116908161142d57600061145d565b6001600160a01b03851660009081526020848152604080832063ffffffff60001987011684529091529020600101545b9050600061139282866119e4565b6114806001600160a01b038416853085611a26565b600061148a6113cc565b6001600160a01b03808716600090815260208381526040808320938916835292905220549091506114bb9084611841565b6001600160a01b03868116600090815260208481526040808320938916835292905220908155600101546114ef9083611841565b6001600160a01b03808716600081815260208581526040808320948a1680845294909152908190206001019390935591518592907f6c86f3fd5118b3aa8bb4f389a617046de0a3d3d477de1a1673d227f802f616dc90611550908790612707565b60405180910390a46115628583611317565b5050505050565b303b1590565b600054610100900460ff16806115885750611588611569565b80611596575060005460ff16155b6115b25760405162461bcd60e51b81526004016102e990612306565b600054610100900460ff161580156115fa576000805460ff197fffffffffffffffffffffffffffffffffffffffffffffffffffffffffffff00ff909116610100171660011790555b6033805460ff1916600117905580156108fe57600080547fffffffffffffffffffffffffffffffffffffffffffffffffffffffffffff00ff16905550565b600082611647575060006105fd565b8282028284828161165457fe5b04146116725760405162461bcd60e51b81526004016102e99061224c565b9392505050565b600061167283836040518060400160405280601a81526020017f536166654d6174683a206469766973696f6e206279207a65726f000000000000815250611acf565b60006116c56113cc565b6001600160a01b038087166000908152602083815260408083209389168352929052205490915083111561170b5760405162461bcd60e51b81526004016102e990612454565b6001600160a01b03808616600090815260208381526040808320938816835292905220600101548211156117515760405162461bcd60e51b81526004016102e990612693565b6001600160a01b038086166000908152602083815260408083209388168352929052205461177f90846119e4565b6001600160a01b03868116600090815260208481526040808320938916835292905220908155600101546117b390836119e4565b6001600160a01b03808716600090815260208481526040808320938916808452939091529020600101919091556117eb908685611b06565b82846001600160a01b0316866001600160a01b03167f91fb9d98b786c57d74c099ccd2beca1739e9f6a81fb49001ca465c4b7591bbe28560405161182f9190612707565b60405180910390a461156285836113f0565b6000828201838110156116725760405162461bcd60e51b81526004016102e990612059565b600061188a4360405180606001604052806032815260200161276060329139611b2a565b905060006118966113a8565b905060008563ffffffff161180156118dd57506001600160a01b03861660009081526020828152604080832063ffffffff6000198a01811685529252909120548382169116145b15611918576001600160a01b03861660009081526020828152604080832063ffffffff6000198a0116845290915290206001018390556119a4565b60408051808201825263ffffffff808516825260208083018781526001600160a01b038b1660008181528784528681208c861682528452868120955186549086167fffffffffffffffffffffffffffffffffffffffffffffffffffffffff0000000091821617875592516001968701559081528487019092529390208054928901909116919092161790555b8284876001600160a01b03167f53ed7954de66613e30dd29b46ab783aa594e6309d021d8854c76bb3325d03aa360405160405180910390a4505050505050565b600061167283836040518060400160405280601f81526020017f536166654d6174683a207375627472616374696f6e20756e646572666c6f7700815250611b5a565b611ac9846323b872dd60e01b858585604051602401611a4793929190611eda565b604080517fffffffffffffffffffffffffffffffffffffffffffffffffffffffffffffffe08184030181529190526020810180517bffffffffffffffffffffffffffffffffffffffffffffffffffffffff167fffffffff0000000000000000000000000000000000000000000000000000000090931692909217909152611b86565b50505050565b60008183611af05760405162461bcd60e51b81526004016102e99190611f17565b506000838581611afc57fe5b0495945050505050565b611b258363a9059cbb60e01b8484604051602401611a47929190611efe565b505050565b6000816401000000008410611b525760405162461bcd60e51b81526004016102e99190611f17565b509192915050565b60008184841115611b7e5760405162461bcd60e51b81526004016102e99190611f17565b505050900390565b6060611bdb826040518060400160405280602081526020017f5361666545524332303a206c6f772d6c6576656c2063616c6c206661696c6564815250856001600160a01b0316611c159092919063ffffffff16565b805190915015611b255780806020019051810190611bf99190611dca565b611b255760405162461bcd60e51b81526004016102e9906125a2565b606061066e848460008585611c2985611cbf565b611c455760405162461bcd60e51b81526004016102e9906124b1565b60006060866001600160a01b03168587604051611c629190611e4f565b60006040518083038185875af1925050503d8060008114611c9f576040519150601f19603f3d011682016040523d82523d6000602084013e611ca4565b606091505b5091509150611cb4828286611cc5565b979650505050505050565b3b151590565b60608315611cd4575081611672565b825115611ce45782518084602001fd5b8160405162461bcd60e51b81526004016102e99190611f17565b604080518082019091526000808252602082015290565b604051806040016040528060008152602001600081525090565b600060208284031215611d40578081fd5b81356116728161274a565b600060208284031215611d5c578081fd5b81516116728161274a565b60008060408385031215611d79578081fd5b8235611d848161274a565b91506020830135611d948161274a565b809150509250929050565b60008060408385031215611db1578182fd5b8235611dbc8161274a565b946020939093013593505050565b600060208284031215611ddb578081fd5b81518015158114611672578182fd5b600060208284031215611dfb578081fd5b5051919050565b600080600080600060a08688031215611e19578081fd5b8535945060208601359350604086013560ff81168114611e37578182fd5b94979396509394606081013594506080013592915050565b60008251611e6181846020870161271e565b9190910192915050565b6001600160a01b0391909116815260200190565b6001600160a01b0392831681529116602082015260400190565b6001600160a01b0397881681529590961660208601526040850193909352606084019190915260ff16608083015260a082015260c081019190915260e00190565b6001600160a01b039384168152919092166020820152604081019190915260600190565b6001600160a01b03929092168252602082015260400190565b6000602082528251806020840152611f3681604085016020870161271e565b601f017fffffffffffffffffffffffffffffffffffffffffffffffffffffffffffffffe0169190910160400192915050565b60208082526019908201527f56503a3a7374616b653a2063616e6e6f74207374616b65203000000000000000604082015260600190565b60208082526039908201527f507269736d3a3a6265636f6d653a206f6e6c792070726f78792061646d696e2060408201527f63616e206368616e676520696d706c656d656e746174696f6e00000000000000606082015260800190565b60208082526026908201527f56503a3a7374616b65576974685065726d69743a206e6f7420656e6f7567682060408201527f746f6b656e730000000000000000000000000000000000000000000000000000606082015260800190565b6020808252601b908201527f536166654d6174683a206164646974696f6e206f766572666c6f770000000000604082015260600190565b60208082526023908201527f56503a3a62616c616e63654f6641743a206e6f74207965742064657465726d6960408201527f6e65640000000000000000000000000000000000000000000000000000000000606082015260800190565b6020808252601c908201527f56503a3a7374616b653a206e6f7420656e6f75676820746f6b656e7300000000604082015260600190565b6020808252601f908201527f56503a3a77697468647261773a2063616e6e6f74207769746864726177203000604082015260600190565b60208082526023908201527f56503a3a7374616b65576974685065726d69743a2063616e6e6f74207374616b60408201527f6520300000000000000000000000000000000000000000000000000000000000606082015260800190565b60208082526022908201527f56503a3a6368616e67654f776e65723a206e6f742076616c696420616464726560408201527f7373000000000000000000000000000000000000000000000000000000000000606082015260800190565b6020808252601e908201527f56503a3a7374616b653a20746f6b656e206e6f7420737570706f727465640000604082015260600190565b60208082526021908201527f536166654d6174683a206d756c7469706c69636174696f6e206f766572666c6f60408201527f7700000000000000000000000000000000000000000000000000000000000000606082015260800190565b60208082526029908201527f56503a3a6164645650666f724c543a206f6e6c79206c6f636b4d616e6167657260408201527f20636f6e74726163740000000000000000000000000000000000000000000000606082015260800190565b6020808252602e908201527f436f6e747261637420696e7374616e63652068617320616c726561647920626560408201527f656e20696e697469616c697a6564000000000000000000000000000000000000606082015260800190565b60208082526024908201527f507269736d3a3a6265636f6d653a206368616e6765206e6f7420617574686f7260408201527f697a656400000000000000000000000000000000000000000000000000000000606082015260800190565b6020808252602c908201527f56503a3a72656d6f76655650666f7255543a206f6e6c79206c6f636b4d616e6160408201527f67657220636f6e74726163740000000000000000000000000000000000000000606082015260800190565b6020808252600a908201527f6f6e6c79206f776e657200000000000000000000000000000000000000000000604082015260600190565b60208082526027908201527f56503a3a5f77697468647261773a206e6f7420656e6f75676820746f6b656e7360408201527f207374616b656400000000000000000000000000000000000000000000000000606082015260800190565b6020808252601d908201527f416464726573733a2063616c6c20746f206e6f6e2d636f6e7472616374000000604082015260600190565b60208082526029908201527f56503a3a6164645650666f724c543a2063616e6e6f7420616464203020766f7460408201527f696e6720706f7765720000000000000000000000000000000000000000000000606082015260800190565b6020808252602f908201527f56503a3a72656d6f76655650666f7255543a2063616e6e6f742072656d6f766560408201527f203020766f74696e6720706f7765720000000000000000000000000000000000606082015260800190565b6020808252602a908201527f5361666545524332303a204552433230206f7065726174696f6e20646964206e60408201527f6f74207375636365656400000000000000000000000000000000000000000000606082015260800190565b6020808252602d908201527f56503a3a7374616b653a206d75737420617070726f766520746f6b656e73206260408201527f65666f7265207374616b696e6700000000000000000000000000000000000000606082015260800190565b6020808252601f908201527f5265656e7472616e637947756172643a207265656e7472616e742063616c6c00604082015260600190565b60208082526026908201527f56503a3a5f77697468647261773a206e6f7420656e6f75676820766f74696e6760408201527f20706f7765720000000000000000000000000000000000000000000000000000606082015260800190565b815181526020918201519181019190915260400190565b90815260200190565b60ff91909116815260200190565b60005b83811015612739578181015183820152602001612721565b83811115611ac95750506000910152565b6001600160a01b03811681146108fe57600080fdfe56503a3a5f7772697465436865636b706f696e743a20626c6f636b206e756d62657220657863656564732033322062697473a2646970667358221220948b67fbc63555c4acb7c215445de595b5a42a91e2994db6eb6d15122faafa7d64736f6c63430007030033",
  "devdoc": {
    "details": "Implementation contract for voting power prism proxy Calls should not be made directly to this contract, instead make calls to the VotingPowerPrism proxy contract The exception to this is the `become` function specified in PrismProxyImplementation  This function is called once and is used by this contract to accept its role as the implementation for the prism proxy",
    "kind": "dev",
    "methods": {
      "addVotingPowerForLockedTokens(address,uint256)": {
        "params": {
          "account": "The recipient of voting power",
          "amount": "The amount of voting power to add"
        }
      },
      "balanceOf(address)": {
        "params": {
          "account": "The address to get votes balance"
        },
        "returns": {
          "_0": "The number of current votes for `account`"
        }
      },
      "balanceOfAt(address,uint256)": {
        "details": "Block number must be a finalized block or else this function will revert to prevent misinformation.",
        "params": {
          "account": "The address of the account to check",
          "blockNumber": "The block number to get the vote balance at"
        },
        "returns": {
          "_0": "The number of votes the account had as of the given block"
        }
      },
      "become(address)": {
        "params": {
          "prism": "Prism Proxy contract"
        }
      },
      "changeOwner(address)": {
        "params": {
          "newOwner": "New owner address"
        }
      },
      "decimals()": {
        "returns": {
          "_0": "decimals"
        }
      },
      "getAmountStaked(address,address)": {
        "params": {
          "stakedToken": "The staked token",
          "staker": "The user with staked tokens"
        },
        "returns": {
          "_0": "total amount staked"
        }
      },
      "getStake(address,address)": {
        "params": {
          "stakedToken": "The staked token",
          "staker": "The user with staked tokens"
        },
        "returns": {
          "_0": "total staked"
        }
      },
      "initialize(address)": {
        "details": "Should be called via VotingPowerPrism before calling anything else",
        "params": {
          "_yakToken": "address of YAK token"
        }
      },
      "lockManager()": {
        "returns": {
          "_0": "Address of lockManager"
        }
      },
      "owner()": {
        "returns": {
          "_0": "Address of owner"
        }
      },
      "removeVotingPowerForUnlockedTokens(address,uint256)": {
        "params": {
          "account": "The account with voting power",
          "amount": "The amount of voting power to remove"
        }
      },
      "setLockManager(address)": {
        "params": {
          "newLockManager": "Address of lockManager"
        }
      },
      "setTokenRegistry(address)": {
        "params": {
          "registry": "Address of token registry"
        }
      },
      "stake(address,uint256)": {
        "params": {
          "amount": "The amount to stake",
          "token": "The token to stake"
        }
      },
      "stakeWithPermit(uint256,uint256,uint8,bytes32,bytes32)": {
        "params": {
          "amount": "The amount to stake",
          "deadline": "The time at which to expire the signature",
          "r": "Half of the ECDSA signature pair",
          "s": "Half of the ECDSA signature pair",
          "v": "The recovery byte of the signature"
        }
      },
      "tokenRegistry()": {
        "returns": {
          "_0": "Address of token registry"
        }
      },
      "withdraw(address,uint256)": {
        "params": {
          "amount": "The amount to withdraw",
          "token": "The token to withdraw"
        }
      },
      "yakToken()": {
        "returns": {
          "_0": "Address of YAK token"
        }
      }
    },
    "title": "VotingPower",
    "version": 1
  },
  "userdoc": {
    "events": {
      "ChangedOwner(address,address)": {
        "notice": "Event emitted when the owner of the voting power contract is updated"
      },
      "Staked(address,address,uint256,uint256)": {
        "notice": "An event that's emitted when a user's staked balance increases"
      },
      "VotingPowerChanged(address,uint256,uint256)": {
        "notice": "An event that's emitted when an account's vote balance changes"
      },
      "Withdrawn(address,address,uint256,uint256)": {
        "notice": "An event that's emitted when a user's staked balance decreases"
      }
    },
    "kind": "user",
    "methods": {
      "addVotingPowerForLockedTokens(address,uint256)": {
        "notice": "Count locked tokens toward voting power for `account`"
      },
      "balanceOf(address)": {
        "notice": "Gets the current votes balance for `account`"
      },
      "balanceOfAt(address,uint256)": {
        "notice": "Determine the prior number of votes for an account as of a block number"
      },
      "become(address)": {
        "notice": "Accept invitation to be implementation contract for proxy"
      },
      "changeOwner(address)": {
        "notice": "Change owner of the contract"
      },
      "decimals()": {
        "notice": "Decimals used for voting power"
      },
      "getAmountStaked(address,address)": {
        "notice": "Get total amount of tokens staked in contract by `staker`"
      },
      "getStake(address,address)": {
        "notice": "Get total staked amount and voting power from `stakedToken` staked in contract by `staker`"
      },
      "initialize(address)": {
        "notice": "Initialize VotingPower contract"
      },
      "lockManager()": {
        "notice": "Address of lockManager"
      },
      "owner()": {
        "notice": "Address of owner"
      },
      "removeVotingPowerForUnlockedTokens(address,uint256)": {
        "notice": "Remove unlocked tokens from voting power for `account`"
      },
      "setLockManager(address)": {
        "notice": "Sets lockManager address"
      },
      "setTokenRegistry(address)": {
        "notice": "Sets token registry address"
      },
      "stake(address,uint256)": {
        "notice": "Stake LP tokens to unlock voting power for `msg.sender`"
      },
      "stakeWithPermit(uint256,uint256,uint8,bytes32,bytes32)": {
        "notice": "Stake YAK tokens using offchain approvals to unlock voting power"
      },
      "tokenRegistry()": {
        "notice": "Address of token registry"
      },
      "withdraw(address,uint256)": {
        "notice": "Withdraw staked LP tokens, removing voting power for `msg.sender`"
      },
      "yakToken()": {
        "notice": "Address of YAK token"
      }
    },
    "version": 1
  },
  "storageLayout": {
    "storage": [
      {
        "astId": 8097,
        "contract": "contracts/VotingPower.sol:VotingPower",
        "label": "initialized",
        "offset": 0,
        "slot": "0",
        "type": "t_bool"
      },
      {
        "astId": 8100,
        "contract": "contracts/VotingPower.sol:VotingPower",
        "label": "initializing",
        "offset": 1,
        "slot": "0",
        "type": "t_bool"
      },
      {
        "astId": 8165,
        "contract": "contracts/VotingPower.sol:VotingPower",
        "label": "______gap",
        "offset": 0,
        "slot": "1",
        "type": "t_array(t_uint256)50_storage"
      },
      {
        "astId": 8740,
        "contract": "contracts/VotingPower.sol:VotingPower",
        "label": "_notEntered",
        "offset": 0,
        "slot": "51",
        "type": "t_bool"
      },
      {
        "astId": 8781,
        "contract": "contracts/VotingPower.sol:VotingPower",
        "label": "__gap",
        "offset": 0,
        "slot": "52",
        "type": "t_array(t_uint256)49_storage"
      }
    ],
    "types": {
      "t_array(t_uint256)49_storage": {
        "base": "t_uint256",
        "encoding": "inplace",
        "label": "uint256[49]",
        "numberOfBytes": "1568"
      },
      "t_array(t_uint256)50_storage": {
        "base": "t_uint256",
        "encoding": "inplace",
        "label": "uint256[50]",
        "numberOfBytes": "1600"
      },
      "t_bool": {
        "encoding": "inplace",
        "label": "bool",
        "numberOfBytes": "1"
      },
      "t_uint256": {
        "encoding": "inplace",
        "label": "uint256",
        "numberOfBytes": "32"
      }
    }
  }
}