{
  "address": "0x1BA4f0a66445777AE0Be89DCB72316c9f02cC75A",
  "abi": [
    {
      "inputs": [
        {
          "internalType": "uint256",
          "name": "amount",
          "type": "uint256"
        }
      ],
      "name": "convertTokensToVotingPower",
      "outputs": [
        {
          "internalType": "uint256",
          "name": "",
          "type": "uint256"
        }
      ],
      "stateMutability": "pure",
      "type": "function"
    }
  ],
  "transactionHash": "0xccf6c59bf227de45f0d051939eb4347a5d14db302cba97797fd0511d8c24c638",
  "args": [],
  "solcInputHash": "cbca27c4fdf8e9078ea5771556254fe0",
  "bytecode": "0x608060405234801561001057600080fd5b50610144806100206000396000f3fe608060405234801561001057600080fd5b506004361061002b5760003560e01c8063b69fb7f914610030575b600080fd5b61004d6004803603602081101561004657600080fd5b503561005f565b60408051918252519081900360200190f35b600061006d826103e8610073565b92915050565b6000826100825750600061006d565b8282028284828161008f57fe5b04146100e6576040517f08c379a00000000000000000000000000000000000000000000000000000000081526004018080602001828103825260218152602001806100ee6021913960400191505060405180910390fd5b939250505056fe536166654d6174683a206d756c7469706c69636174696f6e206f766572666c6f77a26469706673582212202c685c695d3fe1e763d44f4defcdb51eea8735971b1edc3f8d28656251b90ae264736f6c63430007030033",
  "devdoc": {
    "details": "Convert YAK to voting power",
    "kind": "dev",
    "methods": {
      "convertTokensToVotingPower(uint256)": {
        "details": "Always converts 1,000-1",
        "params": {
          "amount": "token amount"
        },
        "returns": {
          "_0": "voting power amount"
        }
      }
    },
    "title": "YakFormula",
    "version": 1
  },
  "userdoc": {
    "kind": "user",
    "methods": {
      "convertTokensToVotingPower(uint256)": {
        "notice": "Convert YAK amount to voting power"
      }
    },
    "version": 1
  },
  "storageLayout": {
    "storage": [],
    "types": null
  }
}